S0230000736D6172745F677265656E5F736D6172745F686F7573655F696F742E73726563B6
S113000002C1000021C100001FC100001DC1000089
S11300101BC1000019C1000017C1000015C1000078
S113002013C1000011C100000FC100000DC1000088
S11300300C94AE0A09C1000007C1000005C100000C
S113004003C1000001C10000FFC00000FDC00000AA
S1130050FBC00000F9C00000F7C00000F5C00000BC
S1130060F3C000000C946C300C94BE30EDC0000062
S1130070EBC00000E9C00000E7C00000E5C00000DC
S1130080E3C00000E1C00000DFC00000DDC00000EC
S11300900C9402310C945431D7C000000C94A03558
S11300A0D3C00000D1C00000CFC00000CDC000000C
S11300B0CBC00000C9C00000C7C00000C5C000001C
S11300C0C3C00000C1C00000BFC000000C94983140
S11300D00C94EA31B9C000000C942E320C94803296
S11300E0B3C00000CC24CC24CC242B2536256D258C
S11300F0CC24CC242B253625C23532363236323642
S11301003236323632363236C2353236323632361C
S11301103236323632363236C4353236323632360A
S1130120323632363236323632363236323632368B
S11301303236323632363236C435323632363236EA
S1130140323632363236323632363236323632366B
S113015032363236323632362E363236323632365F
S11301603236323632363236F93532363236323685
S1130170323632363236323632363236323632363B
S11301803236323632363236ED3532363236323671
S113019032363236323632361136CF93DF931F92EF
S11301A01F92CDB7DEB79A8389830E94111D809177
S11301B06617823010F00E94C3090E949A26F5CF78
S11301C0CF93DF93CDB7DEB727970FB6F894DEBF92
S11301D00FBECDBF9F838E83CE0105960E945E2302
S11301E0DC01CB0189839A83AB83BC832D81898114
S11301F09A81AB81BC81422FBC01CD010E94DF22D8
S11302000E948524E9CF11241FBECFEFD1E2DEBFC7
S1130210CDBF00E00CBF17E0A0E0B2E0ECE7F8E7E8
S113022000E00BBF02C007900D92AE33B107D9F7BF
S113023029E1AEE3B7E001C01D92A537B207E1F7AB
S11302400E9469280C943C3CDBCEEF92FF920F9302
S1130250CF93DF931F92CDB7DEB78983E12CF12CC6
S1130260098120E030E048E851E061E272E088E78B
S113027092E00E947E1500000F90DF91CF910F91C4
S1130280FF90EF900895CF93DF931F921F92CDB705
S1130290DEB781E00E9437340E94F72B0E94742E4F
S11302A0292F2F938F9388E292E0892F8F9388E2EE
S11302B092E08F930E941E390F900F900F900F9031
S11302C00E94752D0E94742E292F2F938F938BE3F8
S11302D092E0892F8F938BE392E08F930E941E39D3
S11302E00F900F900F900F908EE397E00E94092CCF
S11302F08A838A810E94742E9C018EE397E0892F61
S11303008F938EE397E08F93832F8F93822F8F9316
S113031084E592E0892F8F9384E592E08F930E9485
S11303201E390F900F900F900F900F900F908EE347
S113033097E00E94252C0E94742E292F2F938F93CF
S11303408EE397E0892F8F938EE397E08F9388E66F
S113035092E0892F8F9388E692E08F930E941E3952
S11303600F900F900F900F900F900F904EE357E067
S11303706DE772E08EE992E00E94532E0E94742E83
S1130380292F2F938F938EE397E0892F8F938EE3FA
S113039097E08F938DE792E0892F8F938DE792E01A
S11303A08F938EE992E0892F8F938EE992E08F9359
S11303B08FEA92E0892F8F938FEA92E08F930E94C5
S11303C01E398DB79EB70A960FB6F894DEBF0FBEDE
S11303D0CDBF0E94582C0E94742E292F2F938F93E7
S11303E085EE92E0892F8F9385EE92E08F930E94A1
S11303F01E390F900F900F900F9081E00E94522DA4
S11304000E94742E292F2F938F9384EF92E0892FCB
S11304108F9384EF92E08F930E941E390F900F9078
S11304200F900F9084EF91E00E945D2D0E94742E36
S1130430292F2F938F9381E08F9384EF8F9385E1FE
S113044093E0892F8F9385E193E08F930E941E3967
S11304500F900F900F900F900F900F908AE0898368
S113046080E00E945E2C8A838A810E94742E9C0103
S11304708981882F90E0432F4F932F93292F2F9317
S11304808F9385E393E0892F8F9385E393E08F9394
S11304900E941E390F900F900F900F900F900F90A5
S11304A08A81883081F080E00E949B3466E371E0A9
S11304B080E090E00E9416188981815089838981A7
S11304C0882371F601C000008A81883021F481E01C
S11304D00E947D3408C081E00E948C3480E00E9438
S11304E05A3451D7FECF0F900F90DF91CF910895DA
S11304F0CF93DF93CDB7DEB760970FB6F894DEBF26
S11305000FBECDBF988B8F8781E00E94E32B62E002
S113051070E080E090E00E94161880E00E94E32BD7
S113052066E970E080E090E00E9416180E94992B22
S1130530AADE86E08093A30782E08093A20788EA7C
S113054098E4A0E0B0E089839A83AB83BC830E94E3
S11305502F19DC01CB018B879C87AD87BE878981EE
S11305609A81AB81BC819E01255F3F4FAC01BD01E7
S1130570C9010E945A1789E390E39E838D8345D075
S1130580DC01CB01BC01CD010E947928DC01CB0147
S113059098878F838AE194E09A8789878D819E81E9
S11305A0892F99278093A4078D818093A5078F8134
S11305B09885892F990F990B8093A6078F81809333
S11305C0A70789859A85892F99278093A807898504
S11305D08093A90783E00E94AD3462EA77E080E06B
S11305E00E94872C0E94742E292F2F938F9385E5C8
S11305F093E0892F8F9385E593E08F930E941E39B2
S11306000F900F900F900F90AACFCF93DF931F926C
S11306101F92CDB7DEB71A8219820E94392A882325
S1130620A1F00E94392A882F90E0292F2F938F93CD
S11306308AE693E0892F8F938AE693E08F930E9452
S11306401E390F900F900F900F906FE070E080E0D4
S113065090E00E9416180E944E2A8823A1F00E945E
S11306604E2A882F90E0292F2F938F938CE893E0C4
S1130670892F8F938CE893E08F930E941E390F90FB
S11306800F900F900F9066E070E080E090E00E9481
S113069016180E94782A9A8389838A818F93898184
S11306A08F938EEA93E0892F8F938EEA93E08F9352
S11306B00E941E390F900F900F900F9089819A819C
S11306C0CC01A0E0B0E0BC01CD010E94AA28DC016D
S11306D0CB01BC01CD010F900F90DF91CF91089514
S11306E0CF93DF93CDB7DEB787E091E027E031E029
S11306F0F90120812F60FC0120830000DF91CF915C
S11307000895CF93DF931F92CDB7DEB7898388E036
S113071091E028E031E0F9012081207FFC01208371
S113072088E091E028E031E0F9012081322F29812D
S11307302F70232BFC01208300000F90DF91CF91B9
S11307400895CF93DF931F92CDB7DEB7898388E0F6
S113075091E028E031E0F9012081207FFC01208331
S113076000000F90DF91CF910895CF93DF93CDB721
S1130770DEB72A970FB6F894DEBF0FBECDBF9A87B7
S113078089871E821D820E94901880915C17909127
S11307905D17892B09F44ED12091621730916317AC
S11307A089859A8582239323892B09F0CAC0898578
S11307B09A85892B41F084E090E029853A85820F5F
S11307C0931F9A87898789859A85892B09F4B9C0EB
S11307D080915E1790915F1729853A858217930758
S11307E008F4AFC088E597E19C838B838091581708
S11307F0909159179A8389830BC089819A819C832C
S11308008B8389819A81FC01808191819A83898378
S113081089819A81FC012281338189859A852817EF
S1130820390738F489819A81FC0180819181892B6F
S113083021F780915C1790915D1729813A812817DF
S1130840390709F47EC08B819C81FC0120813181B0
S113085084E090E0820F931F9E838D8389819A8127
S1130860FC01208131818B819C81FC0131832083B7
S113087089819A81FC012281338189859A85281B8B
S1130880390B84E090E0880F991F8217930700F5D5
S113089029813A8189859A85820F931F98878F834E
S11308A089819A81FC012281338189859A85281B5B
S11308B0390B8F819885FC013383228389819A8146
S11308C029853A85FC01338322838F81988532D12F
S11308D020915E1730915F1789819A81FC01828192
S11308E09381A901481B590BCA0190935F17809308
S11308F05E1720915E1730915F1780916017909179
S113090061172817390740F480915E1790915F179B
S1130910909361178093601789819A81FC012281E9
S113092033818091621790916317282B392B898129
S11309309A81FC013383228389819A81FC0111828B
S113094010820E949D188D819E81892B11F40E9432
S1130950A2268D819E812A960FB6F894DEBF0FBE23
S1130960CDBFDF91CF910895CF93DF9300D000D016
S1130970CDB7DEB79E838D838D819E819A838983D3
S11309808D819E81892B09F44BC084E090E0919580
S11309908195910929813A81820F931F9A838983D2
S11309A089819A819C838B838B819C81FC01228128
S11309B03381809162179091631782239323892B4B
S11309C079F18B819C81FC0180819181892B41F596
S11309D08B819C81FC0122813381809162179091EB
S11309E0631780959095282339238B819C81FC0182
S11309F0338322830E9490188B819C81FC01228185
S1130A00338180915E1790915F17820F931F9093AB
S1130A105F1780935E178B819C818CD00E949D18F8
S1130A20000026960FB6F894DEBF0FBECDBFDF914F
S1130A30CF910895CF93DF93CDB7DEB728970FB644
S1130A40F894DEBF0FBECDBF80EA9FE09A8389830E
S1130A5088EB97E09C838B838B819C819E838D8321
S1130A608D819E81909359178093581710925B172C
S1130A7010925A172D813E8189819A81820F931F8A
S1130A809C838B8384E090E02B813C81A901481BEB
S1130A90590BCA019C838B838B819C8190935D1736
S1130AA080935C1780915C1790915D17FC01138211
S1130AB0128280915C1790915D17FC011182108263
S1130AC08D819E8198878F838F8198852B813C812E
S1130AD0281B390B8F819885FC0133832283209155
S1130AE05C1730915D178F819885FC0131832083D9
S1130AF08F819885FC018281938190936117809303
S1130B0060178F819885FC018281938190935F1790
S1130B1080935E1780E090E8909363178093621748
S1130B20000028960FB6F894DEBF0FBECDBFDF914C
S1130B30CF910895CF93DF9300D000D0CDB7DEB727
S1130B409E838D8388E597E19A83898307C0898191
S1130B509A81FC01808191819A83898389819A8118
S1130B60FC01208131818D819E812817390778F31A
S1130B7089819A819C838B8389819A81FC018281FA
S1130B8093812B813C81280F391F8D819E812817E9
S1130B903907A9F489819A81FC01228133818D81ED
S1130BA09E81FC0182819381280F391F89819A815A
S1130BB0FC013383228389819A819E838D838D8175
S1130BC09E819C838B838D819E81FC018281938194
S1130BD02B813C81280F391F89819A81FC018081F6
S1130BE0918128173907C1F589819A81FC012081F7
S1130BF0318180915C1790915D172817390711F1A5
S1130C008D819E81FC012281338189819A81FC013D
S1130C1080819181FC0182819381280F391F8D810C
S1130C209E81FC013383228389819A81FC01808126
S1130C309181FC01208131818D819E81FC01318370
S1130C40208314C020915C1730915D178D819E81A3
S1130C50FC01318320830AC089819A81FC012081AF
S1130C6031818D819E81FC013183208329813A81E8
S1130C708D819E812817390739F089819A812D81C8
S1130C803E81FC0131832083000026960FB6F89440
S1130C90DEBF0FBECDBFDF91CF910895CF93DF9319
S1130CA01F921F92CDB7DEB79A83898389819A8177
S1130CB09C012D5F3F4F89819A81FC0132832183FE
S1130CC029813A818FEF9FEFDC01F90183839483BB
S1130CD0A583B68389819A819C012D5F3F4F8981C9
S1130CE09A81FC013087278389819A819C012D5F39
S1130CF03F4F89819A81FC013287218789819A81BA
S1130D00FC01108200000F900F90DF91CF910895A5
S1130D10CF93DF931F921F92CDB7DEB79A83898357
S1130D2089819A81FC011386128600000F900F902E
S1130D30DF91CF910895CF93DF9300D000D0CDB74A
S1130D40DEB79C838B837E836D838B819C81FC01C6
S1130D50818192819A8389838D819E8129813A81BF
S1130D60FC013583248389819A81FC0126813781A2
S1130D708D819E81FC013783268389819A81FC01C0
S1130D80868197812D813E81FC013583248389816D
S1130D909A812D813E81FC01378326838D819E813A
S1130DA02B813C81FC01338722878B819C81FC0150
S1130DB0808121E0280F8B819C81FC01208300002D
S1130DC026960FB6F894DEBF0FBECDBFDF91CF914C
S1130DD00895CF93DF93CDB7DEB72A970FB6F89473
S1130DE0DEBF0FBECDBF98878F837A8769878985D9
S1130DF09A85FC0180819181A281B3818B839C833C
S1130E00AD83BE838B819C81AD81BE818F3F9F4F1B
S1130E10AF4FBF4F41F48F819885FC018185928546
S1130E209A83898320C08F81988503969A838983C6
S1130E3007C089819A81FC01848195819A83898381
S1130E4089819A81FC0184819581FC012081318111
S1130E50428153818B819C81AD81BE81821793072E
S1130E60A407B50730F789819A81FC012481358173
S1130E7089859A85FC013583248389859A85FC01BB
S1130E808481958129853A85FC0137832683898568
S1130E909A8529813A81FC013783268389819A8145
S1130EA029853A85FC013583248389859A852F8198
S1130EB03885FC01338722878F819885FC018081E6
S1130EC021E0280F8F819885FC01208300002A9659
S1130ED00FB6F894DEBF0FBECDBFDF91CF9108955A
S1130EE0CF93DF9300D01F92CDB7DEB79C838B8363
S1130EF08B819C81FC01828593859A8389838B8174
S1130F009C81FC01848195812B813C81F90126819E
S1130F103781FC01378326838B819C81FC01868188
S1130F2097812B813C81F90124813581FC01358332
S1130F30248389819A81FC01218132818B819C8166
S1130F402817390751F48B819C81FC012681378154
S1130F5089819A81FC01328321838B819C81FC01EC
S1130F601386128689819A81FC0180812FEF280FD4
S1130F7089819A81FC01208389819A81FC01808185
S1130F800F900F900F900F90DF91CF910895CF9312
S1130F90DF93CDB7DEB728970FB6F894DEBF0FBE48
S1130FA0CDBF9C838B837E836D8358874F838B81D6
S1130FB09C8121E1FC0120838B819C8101979C838E
S1130FC08B838B819C8122E2FC0120838B819C8119
S1130FD001979C838B838B819C8123E3FC01208379
S1130FE08B819C8101979C838B838D819E819A83C5
S1130FF0898329818B819C81FC0120838B819C8145
S113100001979C838B8389819A81892F99279A835D
S1131010898329818B819C81FC0120838B819C8124
S113102001979C838B838B819C81FC0110828B8133
S11310309C8101979C838B838B819C81FC01108212
S11310408B819C8101979C838B838B819C8120E87D
S1131050FC0120838B819C8101979C838B838B81F2
S11310609C81FC0110828B819C8101979C838B83E2
S11310708B819C81FC0110828B819C8101979C83D4
S11310808B838B819C81FC0110828B819C810197D5
S11310909C838B838B819C8122E0FC0120838B8148
S11310A09C8101979C838B838B819C8123E0FC0131
S11310B020838B819C8101979C838B838B819C8172
S11310C024E0FC0120838B819C8101979C838B838A
S11310D08B819C8125E0FC0120838B819C8101977D
S11310E09C838B838B819C8126E0FC0120838B81F4
S11310F09C8101979C838B838B819C8127E0FC01DD
S113110020838B819C8101979C838B838B819C8121
S113111028E0FC0120838B819C8101979C838B8335
S11311208B819C8129E0FC0120838B819C81019728
S11311309C838B838B819C8120E1FC0120838B81A8
S11311409C8101979C838B838B819C8121E1FC0191
S113115020838B819C8101979C838B838B819C81D1
S113116022E1FC0120838B819C8101979C838B83EA
S11311708B819C8123E1FC0120838B819C810197DD
S11311809C838B838B819C8124E1FC0120838B8154
S11311909C8101979C838B838B819C8125E1FC013D
S11311A020838B819C8101979C838B838B819C8181
S11311B026E1FC0120838B819C8101979C838B8396
S11311C08B819C8127E1FC0120838B819C81019789
S11311D09C838B838B819C8128E1FC0120838B8100
S11311E09C8101979C838B838B819C8129E1FC01E9
S11311F020838B819C8101979C838B838B819C8131
S113120020E2FC0120838B819C8101979C838B834A
S11312108B819C8121E2FC0120838B819C8101973D
S11312209C838B838B819C8122E2FC0120838B81B4
S11312309C8101979C838B838B819C8123E2FC019D
S113124020838B819C8101979C838B838F819885DC
S11312509A83898329818B819C81FC0120838B81E2
S11312609C8101979C838B8389819A81892F9927FB
S11312709A83898329818B819C81FC0120838B81C2
S11312809C8101979C838B838B819C8126E2FC014A
S113129020838B819C8101979C838B838B819C8190
S11312A027E2FC0120838B819C8101979C838B83A3
S11312B08B819C8128E2FC0120838B819C81019796
S11312C09C838B838B819C8129E2FC0120838B810D
S11312D09C8101979C838B838B819C8120E3FC01FF
S11312E020838B819C8101979C838B838B819C8140
S11312F021E3FC0120838B819C8101979C838B8358
S11313008B819C8128960FB6F894DEBF0FBECDBFAB
S1131310DF91CF910895CF93DF93CDB7DEB7FFD0A0
S1131320A0916417B0916517CD91CDBFDD91DEBF5B
S1131330FF91EF91DF91CF91BF91AF919F918F91E9
S11313407F916F915F914F913F912F911F910F91D9
S1131350FF90EF90DF90CF90BF90AF909F908F90D1
S11313607F906F905F904F903F902F901F900F90C1
S11313700CBE0F900BBE0F900FBE0F90089581E02E
S1131380DF91CF9108950F920FB6F8940F920BB698
S11313900F920CB60F921F9211242F923F924F92EC
S11313A05F926F927F928F929F92AF92BF92CF92F1
S11313B0DF92EF92FF920F931F932F933F934F93DC
S11313C05F936F937F938F939F93AF93BF93CF93C9
S11313D0DF93EF93FF93A0916417B09165170DB657
S11313E00D920EB60D920E94681AA0916417B091E6
S11313F06517CD91CDBFDD91DEBFFF91EF91DF91F8
S1131400CF91BF91AF919F918F917F916F915F9198
S11314104F913F912F911F910F91FF90EF90DF908B
S1131420CF90BF90AF909F908F907F906F905F9080
S11314304F903F902F901F900F900CBE0F900BBEBB
S11314400F900FBE0F90089500000F920FB6F894FE
S11314500F920BB60F920CB60F921F9211242F927B
S11314603F924F925F926F927F928F929F92AF9230
S1131470BF92CF92DF92EF92FF920F931F932F931D
S11314803F934F935F936F937F938F939F93AF9308
S1131490BF93CF93DF93EF93FF93A0916417B09121
S11314A065170DB60D920EB60D9283E590E0FC0122
S11314B010820E945319882311F00E94681AA09187
S11314C06417B0916517CD91CDBFDD91DEBFFF915B
S11314D0EF91DF91CF91BF91AF919F918F917F91C8
S11314E06F915F914F913F912F911F910F91FF90B9
S11314F0EF90DF90CF90BF90AF909F908F907F90B0
S11315006F905F904F903F902F901F900F900CBE64
S11315100F900BBE0F900FBE0F9008950000CF9355
S1131520DF93CDB7DEB7A89580E090E08870992767
S1131530892B11F080EE01C080EC90E09770892B2C
S1131540982F88E10FB6F894A895809360000FBE99
S1131550909360000000DF91CF91089576DF189595
S11315600000CF93DF9300D01F921F92CDB7DEB758
S11315709C838B836D838B819C819A8389830FB633
S1131580F8940F9289819A81FC018081918129814B
S11315903A81F901278D422F50E029813A81F901DE
S11315A020A1222F30E0429FB001439F700D529F33
S11315B0700D11249B01280F391F89819A81FC0128
S11315C03583248389819A81FC01168E89819A81CD
S11315D0FC012081318189819A81FC01338322833A
S11315E089819A81FC012081318189819A81FC0160
S11315F0878D882F90E0BC016150710989819A819F
S1131600FC0180A1482F50E0649FC001659F900DAC
S1131610749F900D1124280F391F89819A81FC0130
S11316203783268389819A812FEFFC0121A3898145
S11316309A812FEFFC0122A38D81882379F489817B
S11316409A81FC018085882389F089819A81089692
S11316500E94691B882351F096DE08C089819A8113
S113166008961CDB89819A81439618DB0F900FBE84
S113167081E00F900F900F900F900F90DF91CF911A
S113168008950F931F93CF93DF93CDB7DEB72997B8
S11316900FB6F894DEBF0FBECDBF8F83688749872E
S11316A08885882319F41A8219820FC08F81482FE4
S11316B050E08885282F30E0429FC001439F900D61
S11316C0529F900D11249A83898389819A818596EA
S11316D04CD89C838B838B819C81892B99F08B8143
S11316E09C819E838D838D819E8185969E838D832F
S11316F02B813C818D819E8189012985AC0168857E
S11317008F810DD08B819C8129960FB6F894DEBF12
S11317100FBECDBFDF91CF911F910F9108950F930D
S11317201F93CF93DF93CDB7DEB727970FB6F89407
S1131730DEBF0FBECDBF89836A835C834B832D8359
S11317401F830E838A81882341F48E819F812E8199
S11317503F81FC013183208307C08E819F812B81CF
S11317603C81FC01318320838E819F812981FC018E
S1131770278F8E819F812A81FC0120A38E819F81E6
S113178061E0EFDE8E819F812D81FC0124A30000A6
S113179027960FB6F894DEBF0FBECDBFDF91CF9171
S11317A01F910F9108950F93CF93DF931F921F9270
S11317B0CDB7DEB79A83898389819A81892BB9F061
S11317C089819A81FC011582148289819A81FC01A4
S11317D01182108289819A81FC01168289819A8101
S11317E000E020E030E0A90160E070E025D00000D6
S11317F00F900F90DF91CF910F910895CF93DF93C6
S113180000D01F921F92CDB7DEB78D8381E089830C
S11318101A824D816A81898134DF9C838B838B8119
S11318209C81C1DF8B819C810F900F900F900F9052
S11318300F90DF91CF9108950F93CF93DF93CDB79E
S1131840DEB762970FB6F894DEBF0FBECDBF9B879D
S11318508A877D876C872E873F87488B598B0A8BB5
S113186019828A859B859B838A830FB6F8940F928D
S11318708A819B81FC01268D8A819B81FC01878D55
S1131880281718F08A898230F9F42C853D858A81DD
S11318909B814A89B90198D18C838A819B81FC01FF
S11318A08389882349F08A819B8143960E94691B1E
S11318B0882331F068DD04C08C81882309F063DD5E
S11318C00F900FBE81E064C08E859F85A889B98979
S11318D0892B8A2B8B2B21F40F900FBE80E058C0EC
S11318E08981882331F4CE0105960E94FB1B81E097
S11318F089830F900FBE0E9490180FB6F8940F9230
S11319008A819B81FC0181A18F3F21F48A819B8183
S1131910FC0111A28A819B81FC0182A18F3F21F4E9
S11319208A819B81FC0112A20F900FBE9E01225F4F
S11319303F4FCE010596B9010E941E1C882311F564
S11319408A819B81DDD28823B9F08E859F85A88901
S1131950B9892A813B81285F3F4FAC01BD01C90190
S11319600E94061B8A819B8150D20E949D18882365
S113197009F07BCF08DD79CF8A819B8146D20E9412
S11319809D1873CF8A819B8140D20E949D1880E06C
S113199062960FB6F894DEBF0FBECDBFDF91CF9134
S11319A00F910895CF93DF93CDB7DEB72C970FB681
S11319B0F894DEBF0FBECDBF9F838E83798768877F
S11319C05B874A872C878E819F819B838A831C82B5
S11319D08A819B81FC01268D8A819B81FC01878DF4
S11319E0281718F08C85823081F58A819B81FC014F
S11319F082A18D83288539858A819B814C85B90193
S1131A00E3D08D818F3FB9F48A819B81FC01838966
S1131A108823C1F08A819B8143960E94691B882395
S1131A2089F08A859B85892B69F08A859B8521E0CD
S1131A30FC01208307C08D818F5F282F8A819B81C1
S1131A40FC0122A381E0898301C0198289812C963B
S1131A500FB6F894DEBF0FBECDBFDF91CF910895CE
S1131A60CF93DF93CDB7DEB761970FB6F894DEBF9F
S1131A700FBECDBF9B878A877D876C872E873F8764
S1131A80488B598B19828A859B859B838A830FB6E1
S1131A90F8940F928A819B81FC01868D8C838C81C2
S1131AA08823F9F02C853D858A819B81B9015CD11D
S1131AB08C812FEF280F8A819B81FC01268F8A81DC
S1131AC09B81FC018085882341F08A819B81089653
S1131AD00E94691B882309F056DC0F900FBE81E039
S1131AE06AC08E859F85A889B989892B8A2B8B2BFF
S1131AF021F40F900FBE80E05EC08981882331F409
S1131B00CE0105960E94FB1B81E089830F900FBED6
S1131B100E9490180FB6F8940F928A819B81FC0161
S1131B2081A18F3F21F48A819B81FC0111A28A81CA
S1131B309B81FC0182A18F3F21F48A819B81FC015E
S1131B4012A20F900FBE9E01225F3F4FCE01059659
S1131B50B9010E941E1C882311F58A819B81B3D18F
S1131B608823B9F08E859F85A889B9892A813B810C
S1131B702D5E3F4FAC01BD01C9010E94061B8A8145
S1131B809B8143D10E949D18882309F080CFFBDB01
S1131B907ECF8A819B8139D10E949D1878CF8A811A
S1131BA09B8133D10E949D188A819B818CD188238B
S1131BB009F46DCF80E061960FB6F894DEBF0FBED6
S1131BC0CDBFDF91CF910895CF93DF93CDB7DEB72B
S1131BD027970FB6F894DEBF0FBECDBF9C838B83CF
S1131BE07E836D834F8319828B819C81FC01868D5A
S1131BF08A838B819C81FC0180A18823B1F48B8131
S1131C009C81FC0180819181892B09F09CC08B818E
S1131C109C81FC01848195810E94C21D89838B81F2
S1131C209C81FC01158214828EC08F818823D9F592
S1131C308B819C81FC0180A1482F50E08B819C8189
S1131C40FC01828193812D813E81B9010E94BF38BC
S1131C508B819C81FC01228133818B819C81FC01DD
S1131C6080A1882F90E0280F391F8B819C81FC0173
S1131C70338322838B819C81FC01228133818B817C
S1131C809C81FC01848195812817390708F45BC085
S1131C908B819C81FC01208131818B819C81FC01A1
S1131CA03383228350C08B819C81FC0180A1482F07
S1131CB050E08B819C81FC01868197812D813E813E
S1131CC0B9010E94BF388B819C81FC012681378138
S1131CD08B819C81FC0180A1882F90E09195819556
S1131CE09109280F391F8B819C81FC01378326833E
S1131CF08B819C81FC01268137818B819C81FC0135
S1131D008081918128173907A8F48B819C81FC017B
S1131D10248135818B819C81FC0180A1882F90E0F6
S1131D20919581959109280F391F8B819C81FC0124
S1131D30378326838F81823031F48A81882319F096
S1131D408A8181508A838A8121E0280F8B819C813A
S1131D50FC01268F898127960FB6F894DEBF0FBE4B
S1131D60CDBFDF91CF910895CF93DF9300D01F9221
S1131D70CDB7DEB79A8389837C836B8389819A810B
S1131D80FC0180A18823C9F189819A81FC01268103
S1131D90378189819A81FC0180A1882F90E0280FE6
S1131DA0391F89819A81FC013783268389819A812D
S1131DB0FC012681378189819A81FC018481958186
S1131DC02817390750F089819A81FC0120813181DB
S1131DD089819A81FC013783268389819A81FC0158
S1131DE080A1482F50E089819A81FC0126813781A6
S1131DF08B819C81B9010E94BF3800000F900F9025
S1131E000F900F90DF91CF910895CF93DF9300D07F
S1131E101F92CDB7DEB79C838B830FB6F8940F92D5
S1131E208B819C81FC0182A1898312C08B819C815E
S1131E30FC018389882381F08B819C8143960E94D5
S1131E40691B882311F00E94C71C898181508983F2
S1131E50898118165CF301C000008B819C812FEFEF
S1131E60FC0122A30F900FBE0FB6F8940F928B8142
S1131E709C81FC0181A18A8312C08B819C81FC011D
S1131E808085882381F08B819C8108960E94691B40
S1131E90882311F00E94C71C8A8181508A838A8119
S1131EA018165CF301C000008B819C812FEFFC01AC
S1131EB021A30F900FBE00000F900F900F900F9072
S1131EC0DF91CF910895CF93DF9300D0CDB7DEB7E4
S1131ED09B838A830FB6F8940F928A819B81FC01BD
S1131EE0868D882319F481E0898301C019820F90BB
S1131EF00FBE89810F900F900F90DF91CF910895BD
S1131F00CF93DF9300D0CDB7DEB79B838A830FB620
S1131F10F8940F928A819B81FC01268D8A819B8192
S1131F20FC01878D281719F481E0898301C0198287
S1131F300F900FBE89810F900F900F90DF91CF917A
S1131F400895CF93DF93CDB7DEB729970FB6F894F2
S1131F50DEBF0FBECDBF9C838B834D835E836F83B7
S1131F60788729878B819C819A8389830FB6F8941B
S1131F700F9289819A81FC0181A18F3F21F489818B
S1131F809A81FC0111A289819A81FC0182A18F3F6F
S1131F9021F489819A81FC0112A20F900FBE8981DC
S1131FA09A81FC01868D882371F489819A81FC01D0
S1131FB073968D819E81AF81B8852985AC01BD0161
S1131FC0CF010E94301B89819A811FDF000029966E
S1131FD00FB6F894DEBF0FBECDBFDF91CF91089549
S1131FE00F93CF93DF93CDB7DEB728970FB6F8944E
S1131FF0DEBF0FBECDBF9D838C837F836E834887F6
S11320008885813019F481E0898301C019828E8129
S11320109F81892B21F481E090E09F838E838C81C2
S11320209D8101969D838C838C819D8140960E9425
S1132030B5039B838A838A819B81892B69F08A817A
S11320409B81BC01605F7F4F2E813F814C815D810C
S11320508A819B81098111D58A819B8128960FB63B
S1132060F894DEBF0FBECDBFDF91CF910F910895DD
S11320700F93CF93DF9300D000D0CDB7DEB79E830C
S11320808D838D819E819B838A8319828A819B8122
S1132090DC011F968C918C830FB6F8940F928A8181
S11320A09B81FC0180859185892B71F58A819B81B7
S11320B0DC011A968D919C911B97892B29F58A81B5
S11320C09B81DC011E96EC918A819B81DC01169632
S11320D02D913C9117978A819B81DC0114964D9137
S11320E05C9115978A819B81DC011C966D917C9192
S11320F01D978A819B810E2FC0D481E089838A81B8
S11321009B812C81FC0127870F900FBE8981269625
S11321100FB6F894DEBF0FBECDBFDF91CF910F9104
S11321200895CF93DF9300D000D0CDB7DEB79E8360
S11321308D838D819E819C838B838B819C81FC010B
S1132140248135818B819C81FC0180819181820F66
S1132150931F9A8389838B819C81FC018281938163
S113216029813A81A901481B590BCA019A838983A1
S113217089819A8101979A8389838B819C81FC014F
S11321802481358189819A818217930768F08B8134
S11321909C81FC018481958129813A81A901481B94
S11321A0590BCA019A83898389819A8126960FB62D
S11321B0F894DEBF0FBECDBFDF91CF910895CF92CB
S11321C0DF92EF92FF920F931F93CF93DF93CDB7DC
S11321D0DEB767970FB6F894DEBF0FBECDBF9F87FB
S11321E08E87798B688B5B8B4A8B0C8B1D8B2E8B2C
S11321F03F8B8E859F859E838D831A8219828A895F
S11322009B899C838B838D819E81FC018685882F8D
S113221090E081709927892B29F08B819C8102960B
S11322209C838B838C899D89AE89BF89892B8A2B5A
S11322308B2B09F445C0CE0109960E94D31B0FB61F
S1132240F8940F928D819E816CDF9A838983298112
S11322503A818B819C812817390768F480E090E0EB
S11322600E94D9200E94961D9C018D819E81FC01B3
S11322703387228703C00F900FBE22C00F900FBE7A
S11322808C899D89AE89BF896C017D0100E010E0D5
S113229020E030E0A90160E070E0CB010E94501E14
S11322A08D819E81FC01138612869E012C5E3F4F18
S11322B0CE010996B9010E941E1C882309F4BFCFE0
S11322C089819A81892B29F48D819E812ADF9A83C1
S11322D08983EB81FC8129813A814A895B896889F8
S11322E079898D819E818F01BAD098878F838F8160
S11322F09885892B39F18D819E817CD39C018D81B8
S11323009E81FC018681978128173907D8F008D768
S11323108D819E81FC0180859185892B91F08D8131
S11323209E81FC018085918500E010E020E040E082
S113233050E0BA010E94031F8D819E81FC01118629
S11323401086FBD68F81988567960FB6F894DEBF0A
S11323500FBECDBFDF91CF911F910F91FF90EF90F2
S1132360DF90CF900895EF92FF920F931F93CF9336
S1132370DF93CDB7DEB761970FB6F894DEBF0FBE1B
S1132380CDBF9B878A877D876C875F874E87398B14
S1132390288B8A859B859C838B838E859F859A83D6
S11323A089838B819C81FC018685882F90E08170D4
S11323B09927892B29F089819A8102969A838983A6
S11323C08B819C81AEDE9E838D83E981FA812D8190
S11323D03E814E855F856C857D858B819C818F01D7
S11323E03ED098878F838F819885892B49F18B8183
S11323F09C8100D39C018B819C81FC018681978107
S113240028173907E8F019868B819C81FC018085A7
S11324109185892BA9F08B819C81FC018085918514
S113242028893989790100E010E020E040E050E09B
S1132430BA010E94E11F8B819C81FC0111861086E8
S11324408F81988561960FB6F894DEBF0FBECDBF1D
S1132450DF91CF911F910F91FF90EF9008950F930B
S11324601F93CF93DF93CDB7DEB761970FB6F89480
S1132470DEBF0FBECDBF998788877B876A875D875C
S11324804C873F872E87198B088B8E859F85892BD8
S113249011F4198233C088859985FC018685882FBB
S11324A090E081709927892BA9F481E089838C8538
S11324B09D859D838C838E859F859F838E832C81B0
S11324C03D818E819F812817390708F4C9019D87B2
S11324D08C8714C02E853F858889998928173907E8
S11324E060F081E089839E01245F3F4F8885998550
S11324F042E050E0B90148D101C0198289818823A2
S113250059F04C855D852A853B8588859985B90177
S11325103BD19B838A8302C01B821A828A819B815E
S113252061960FB6F894DEBF0FBECDBFDF91CF9199
S11325301F910F910895CF92DF92EF92FF920F9324
S11325401F93CF93DF93CDB7DEB762970FB6F8949E
S1132550DEBF0FBECDBF9A8789877C876B875E8776
S11325604D870F87188B298B3A8B89859A85988795
S11325708F831A8219828F819885FC018685882F22
S113258090E081709927892B29F082E090E09E8366
S11325908D8302C01E821D828F859889A989BA897C
S11325A0892B8A2B8B2B09F43FC00FB6F8940F921A
S11325B08F8198851FD29C838B832B813C818D8155
S11325C09E818217930760F080E090E00E94D920FA
S11325D00E94961D9C018F819885FC01318720877C
S11325E00F900FBE2B813C818D819E8182179307B2
S11325F000F18F859889A989BA896C017D0100E071
S113260010E020E030E0A90160E070E0CB010E941E
S1132610501E8F819885FC01118610868F819885C4
S1132620E9D19C838B8305C08F819885E3D19C83FA
S11326308B832B813C818D819E818217930768F562
S1132640ED81FE812B813C814D855E856B857C858A
S11326508F8198858F0132D09A83898389819A8169
S1132660892BD9F05DD58F819885FC01828593856E
S1132670892B91F08F819885FC018285938500E0F8
S113268010E020E040E050E0BA010E94031F8F8177
S11326909885FC011386128650D589819A816296A9
S11326A00FB6F894DEBF0FBECDBFDF91CF911F915F
S11326B00F91FF90EF90DF90CF9008950F931F93A9
S11326C0CF93DF93CDB7DEB762970FB6F894DEBF32
S11326D00FBECDBF9A8789877C876B875E874D87BE
S11326E0388B2F871A8B098B89899A89892B81F1D9
S11326F089859A85FC01808191819C838B832F85B8
S1132700388949895A89BE01695F7F4F89859A85CD
S1132710CAD08F8198859A8389832F85388989893E
S11327209A89A901481B590BCA01988B8F87298163
S11327303A818D859E858217930770F489859A85E1
S11327402B813C81FC01318320831A82198204C0CD
S11327508D859E859A8389832F85388949815A81FD
S11327606B857C8589859A859ED09E838D838D819A
S11327709E8162960FB6F894DEBF0FBECDBFDF9187
S1132780CF911F910F910895CF93DF93CDB7DEB70B
S11327902E970FB6F894DEBF0FBECDBF9A878987F8
S11327A07C876B875E874D8789859A85FC0182814A
S11327B093819A83898389859A85FC012481358153
S11327C089819A81A901481B590BCA019C838B8377
S11327D08D859E859E838D832B813C818D819E81F9
S11327E02817390708F4C90198878F8389859A8542
S11327F0FC012485358589819A81820F931F4F813D
S113280058852B853C85B9010E94BF382D853E85AE
S11328108F81988582179307A8F42D853E858F8133
S11328209885A901481B590B2B853C858F81988578
S1132830280F391F89859A85FC0184859585B901FE
S11328400E94BF3829813A818D859E85820F931F0E
S11328509A83898389859A85FC01248135818981BC
S11328609A818217930768F089859A85FC0184818F
S1132870958129813A81A901481B590BCA019A8380
S1132880898389859A8529813A81FC01338322834E
S11328908D859E852E960FB6F894DEBF0FBECDBFF4
S11328A0DF91CF910895CF93DF93CDB7DEB76697CD
S11328B00FB6F894DEBF0FBECDBF988B8F877A8B8F
S11328C0698B5C8B4B8B3E8B2D8B8D899E899C8376
S11328D08B838B899C899E838D832B813C818D8105
S11328E09E812817390708F4C90198878F838F813F
S11328F09885892B09F473C08F859889FC018081A0
S113290091819A8389838F859889FC0124813581FB
S113291089819A81A901481B590BCA019A87898721
S11329208F8198859C878B8729853A858B859C85A3
S11329302817390708F4C9019E878D878F859889E0
S1132940FC012485358589819A81280F391F4D859D
S11329505E8589899A89B9010E94BF382F8138859B
S11329608D859E8582179307A0F42F8138858D85E8
S11329709E85A901481B590B8F859889FC016485A4
S1132980758529893A898D859E85820F931F0E94BA
S1132990BF3829813A818F819885820F931F9A834A
S11329A089838F859889FC012481358189819A8165
S11329B08217930768F08F859889FC01848195813B
S11329C029813A81A901481B590BCA019A83898339
S11329D08F85988929813A81FC01318320838F81F5
S11329E0988566960FB6F894DEBF0FBECDBFDF9113
S11329F0CF910895CF93DF9300D01F92CDB7DEB768
S1132A009C838B838B819C81FC01248135818B8108
S1132A109C81FC0182819381820F931F9A83898315
S1132A208B819C81FC018081918129813A81A9015A
S1132A30481B590BCA019A8389838B819C81FC01B1
S1132A402481358189819A818217930768F08B816B
S1132A509C81FC018481958129813A81A901481BCB
S1132A60590BCA019A83898389819A810F900F90A7
S1132A700F900F90DF91CF9108950F93CF93DF9331
S1132A80CDB7DEB729970FB6F894DEBF0FBECDBF22
S1132A909A8389837C836B835E834D8338872F83FA
S1132AA0098789819A8140E150E060E070E00E94EA
S1132AB0C83889819A812B813C81FC013587248720
S1132AC089819A812D813E81FC013583248389810A
S1132AD09A812F813885FC013783268389819A81E5
S1132AE02985FC012687000029960FB6F894DEBFDD
S1132AF00FBECDBFDF91CF910F910895AF92BF92DA
S1132B00CF92DF92EF92FF920F93CF93DF93CDB7E3
S1132B10DEB760970FB6F894DEBF0FBECDBF9F83BC
S1132B208E83798768875B874A873D872C870E87E2
S1132B30F88AEF868A859B850E94B5039D838C83E2
S1132B408C819D81892BB9F080E390E00E94B503CC
S1132B509A83898389819A81892B41F089819A8119
S1132B602C813D81FC01348F238F07C08C819D8192
S1132B700E94B40402C01A82198289819A81892B25
S1132B80C1F0A981BA81EF85F8892C853D854A85F4
S1132B905B85688579858E819F81A12CB12C6D011F
S1132BA07F010E8519D089819A8103D181E08B83BD
S1132BB002C08FEF8B838B8160960FB6F894DEBFD3
S1132BC00FBECDBFDF91CF910F91FF90EF90DF90BB
S1132BD0CF90BF90AF900895AF92BF92CF92DF9203
S1132BE0EF92FF920F931F93CF93DF93CDB7DEB78E
S1132BF062970FB6F894DEBF0FBECDBF9D838C8362
S1132C007F836E83598748873B872A870C87FE8694
S1132C10ED86D88ACF86BA8AA98A8F859889FC01DD
S1132C20838D948D28853985A90165EA70E00E9419
S1132C30C8388F859889FC01238D348D88859985C2
S1132C400197820F931F9B838A838E819F81892B97
S1132C5069F1198221C08981882F90E02981222F6E
S1132C6030E04E815F81240F351FF90140812F85AB
S1132C703889820F931F4D96FC0140838981882FE8
S1132C8090E02E813F81820F931FFC018081882375
S1132C9039F089818F5F898389818830E0F201C0AE
S1132CA000008F859889FC0114A204C08F8598893F
S1132CB0FC01158E8C85843010F083E08C878F8521
S1132CC098892C85FC01228F8F8598892C85FC019D
S1132CD027A38F859889FC0110A68F859889029671
S1132CE00E9488068F8598890E960E9488068F8593
S1132CF098892F853889FC01338722878C85882F12
S1132D0090E0A0E0B0E024E030E040E050E0790161
S1132D108A01E81AF90A0A0B1B0BD801C7012F858F
S1132D203889F90186879787A08BB18B8F8598891D
S1132D302F853889FC01378B268B8F859889FC0178
S1132D4012A611A68F859889FC0113A614A615A6B0
S1132D5016A68F859889FC0117A64A855B852C8168
S1132D603D818A819B81B9010E94C7079C018F859F
S1132D709889FC01318320838D859E85892B39F0C8
S1132D808D859E852F853889FC0131832083000041
S1132D9062960FB6F894DEBF0FBECDBFDF91CF9120
S1132DA01F910F91FF90EF90DF90CF90BF90AF9065
S1132DB00895CF93DF931F921F92CDB7DEB79A8306
S1132DC089830FB6F8940F928091CE178F5F80930A
S1132DD0CE178091641790916517892B61F48981CE
S1132DE09A8190936517809364178091CE178130F0
S1132DF0C1F4D8D516C08091D417882391F480915A
S1132E00641790916517FC01228D89819A81FC01D8
S1132E10828D821730F089819A819093651780930F
S1132E2064178091D8178F5F8093D8172091D81793
S1132E3089819A81FC0125A389819A81FC01928D63
S1132E408091D317891730F489819A81FC01828D8E
S1132E508093D31789819A81AC014E5F5F4F89813A
S1132E609A81FC01828D282F30E06BE0629FC001C3
S1132E70639F900D11248A59984EBA010E949B06B3
S1132E800F900FBE8091D417882371F0809164173E
S1132E9090916517FC01228D89819A81FC01828DB4
S1132EA0281710F40E94C30900000F900F90DF91BF
S1132EB0CF910895EF92FF920F931F93CF93DF93D7
S1132EC0CDB7DEB760970FB6F894DEBF0FBECDBFA7
S1132ED09C878B874D875E876F87788B198220D17B
S1132EE08091CF179091D017A091D117B091D2179C
S1132EF08A839B83AC83BD838B859C85FC01208165
S1132F003181428153818D859E85AF85B889820F39
S1132F10931FA41FB51F8E839F83A887B9878B85B2
S1132F209C85FC0120813181428153818A819B816E
S1132F30AC81BD8182179307A407B50700F58B8583
S1132F409C85FC0120813181428153818E819F8146
S1132F50A885B98582179307A407B50778F52E814C
S1132F603F81488559858A819B81AC81BD818217C7
S1132F709307A407B50710F581E089831FC08B85EB
S1132F809C85FC0120813181428153818E819F8106
S1132F90A885B98582179307A407B50768F02E8121
S1132FA03F81488559858A819B81AC81BD81821787
S1132FB09307A407B50710F481E089832B853C852A
S1132FC08E819F81A885B985F90180839183A2832D
S1132FD0B38389818823A9F02E813F81488559854F
S1132FE08A819B81AC81BD8179018A01E81AF90A41
S1132FF00A0B1B0BD801C70140E0BC01CD010E94A4
S11330000B219BD08A878A85882311F40E94C309E7
S1133010000060960FB6F894DEBF0FBECDBFDF91FF
S1133020CF911F910F91FF90EF900895CF93DF936D
S113303000D01F921F92CDB7DEB76A837B838C8347
S11330409D8319828A819B81AC81BD81892B8A2BC6
S11330508B2B61F065D08A819B81AC81BD8140E07E
S1133060BC01CD010E940B2168D08983898188230A
S113307011F40E94C30900000F900F900F900F905D
S11330800F90DF91CF910895EF92FF920F93CF931A
S1133090DF931F92CDB7DEB70F2EFDEDEF2EF7E1D4
S11330A0FF2EF02D00E020E030E040EC50E060EC3A
S11330B073E08DEC90E022DD89838981813019F4FD
S11330C00E94B22189838981813011F5F8948FEFB0
S11330D09FEFDC018093D9179093DA17A093DB1745
S11330E0B093DC1781E08093D4171092CF1710921D
S11330F0D0171092D1171092D21780916417909123
S11331006517FC0181A592A50E9481030E948B0989
S113311000000F90DF91CF910F91FF90EF900895F1
S1133120CF93DF93CDB7DEB78091DF178F5F8093A6
S1133130DF170000DF91CF910895CF93DF9300D084
S11331401F92CDB7DEB71A8219821B820FB6F8948C
S11331500F928091DF1781508093DF178091DF17E2
S1133160882309F072C08091CE17882309F46DC0BA
S113317046C08091B3179091B417FC018085918566
S11331809A83898389819A810E960E947007898126
S11331909A8102960E94700789819A81FC01928D1E
S11331A08091D317891730F489819A81FC01828D2B
S11331B08093D31789819A81AC014E5F5F4F8981D7
S11331C09A81FC01828D282F30E06BE0629FC00160
S11331D0639F900D11248A59984EBA010E949B0650
S11331E089819A81FC01228D8091641790916517E1
S11331F0FC01828D281718F081E08093D617809106
S1133200AC17882309F0B5CF89819A81892B09F0FD
S113321052D48091D5178C838C81882371F043D04C
S1133220882319F081E08093D6178C8181508C8398
S11332308C818823A1F71092D5178091D617882303
S113324021F081E08B830E94C3090F900FBE8B8114
S11332500F900F900F900F90DF91CF910895CF931F
S1133260DF9300D01F92CDB7DEB70FB6F8940F925C
S11332708091CF179091D017A091D117B091D21708
S113328089839A83AB83BC830F900FBE89819A8113
S1133290AB81BC81BC01CD010F900F900F900F90BA
S11332A0DF91CF910895CF93DF93CDB7DEB72D97FC
S11332B00FB6F894DEBF0FBECDBF19828091DF1721
S11332C0882309F0F0C08091CF179091D017A09176
S11332D0D117B091D2170196A11DB11D8A839B838A
S11332E0AC83BD838A819B81AC81BD818093CF17E0
S11332F09093D017A093D117B093D2178A819B8152
S1133300AC81BD81892B8A2B8B2BD1F48091A8179A
S11333109091A9179F838E838091AA179091AB17E0
S11333209093A9178093A8178E819F819093AB17D0
S11333308093AA178091D7178F5F8093D717BBD339
S11333408091D9179091DA17A091DB17B091DC170F
S11333502A813B814C815D81281739074A075B0725
S113336008F48AC08091A8179091A917FC01808164
S1133370882361F48FEF9FEFDC018093D91790933A
S1133380DA17A093DB17B093DC1776C08091A817E7
S11333909091A917FC0187819085FC018085918516
S11333A09987888788859985FC0182819381A48186
S11333B0B5818A879B87AC87BD872A813B814C81F5
S11333C05D818A859B85AC85BD85281739074A07A9
S11333D05B0768F48A859B85AC85BD858093D91786
S11333E09093DA17A093DB17B093DC1745C0888558
S11333F0998502960E94700788859985FC01808DC5
S1133400918D892B29F0888599850E960E947007E5
S113341088859985FC01928D8091D317891730F4A2
S113342088859985FC01828D8093D3178885998539
S1133430AC014E5F5F4F88859985FC01828D282FF2
S113344030E06BE0629FC001639F900D11248A59A4
S1133450984EBA010E949B0688859985FC01228DAD
S11334608091641790916517FC01828D281708F4E8
S113347079CF81E0898376CF809164179091651725
S1133480FC01828D282F30E04BE0429FC001439F16
S1133490900D11248A59984EFC018081823040F0AD
S11334A081E0898305C08091D5178F5F8093D517FC
S11334B08091D617882311F081E0898389812D9624
S11334C00FB6F894DEBF0FBECDBFDF91CF91089544
S11334D0CF93DF9300D0CDB7DEB78091DF17882379
S11334E021F081E08093D6178AC01092D61780917C
S11334F0641790916517FC0181A592A50E94A10310
S11335008091641790916517FC012081318180912D
S1133510641790916517FC01838D948D821793072E
S113352070F080916417909165179C01235E3F4F62
S11335308091641790916517B9010E943427809196
S1133540D317898303C08981815089838981282F76
S113355030E04BE0429FC001439F900D11248A59F3
S1133560984EFC018081882371F38981282F30E0F3
S11335704BE0429FC001439F900D11248A59984EFD
S11335809B838A838A819B81FC0181819281FC01D6
S1133590248135818A819B81FC01328321838A8144
S11335A09B81FC01218132818A819B8103962817AA
S11335B0390769F48A819B81FC0181819281FC0134
S11335C0248135818A819B81FC01328321838A8114
S11335D09B81FC0181819281FC018085918590937E
S11335E065178093641789818093D317809164173A
S11335F090916517FC0181A592A50E9481030000AA
S11336000F900F900F90DF91CF910895CF93DF9398
S113361000D000D0CDB7DEB79A8389834B835C8317
S11336206D837E8380916417909165179C01225F5E
S11336303F4F89819A81B9010E94E9068B819C815F
S1133640AD81BE8141E0BC01CD01E5D500002696E7
S11336500FB6F894DEBF0FBECDBFDF91CF910895B2
S1133660CF93DF93CDB7DEB727970FB6F894DEBFBD
S11336700FBECDBF9A8389834B835C836D837E8326
S11336802F8380916417909165179C01225F3F4FAF
S113369089819A81B9010E949B068F81882339F020
S11336A08FEF9FEFDC018B839C83AD83BE838B8183
S11336B09C81AD81BE814F81BC01CD01ACD50000A0
S11336C027960FB6F894DEBF0FBECDBFDF91CF9122
S11336D00895CF93DF9300D01F921F92CDB7DEB72A
S11336E09D838C838C819D81FC0187819085FC0165
S11336F0808591859B838A838A819B810E960E9413
S113370070078091DF17882351F58A819B81029687
S11337100E9470078A819B81FC01928D8091D3174E
S1133720891730F48A819B81FC01828D8093D317A1
S11337308A819B81AC014E5F5F4F8A819B81FC0132
S1133740828D282F30E06BE0629FC001639F900D53
S113375011248A59984EBA010E949B0608C08A8196
S11337609B810E96BC018CEA97E10E949B068A819C
S11337709B81FC01228D8091641790916517FC0157
S1133780828D821730F481E0898381E08093D6179B
S113379001C0198289810F900F900F900F900F90A4
S11337A0DF91CF910895CF93DF931F921F92CDB7EE
S11337B0DEB79A8389830FB6F8940F922091D717B6
S11337C089819A81FC0120838091CF179091D01731
S11337D0A091D117B091D21729813A81F90181833F
S11337E09283A383B4830F900FBE00000F900F90B9
S11337F0DF91CF910895CF93DF931F921F92CDB79E
S1133800DEB79A8389832091D71789819A81FC0135
S113381020838091CF179091D017A091D117B091A8
S1133820D21729813A81F90181839283A383B483D6
S113383000000F900F90DF91CF910895EF92FF92C7
S11338400F931F93CF93DF93CDB7DEB72D970FB6AA
S1133850F894DEBF0FBECDBF9B878A877D876C87B8
S11338600FB6F8940F928091CF179091D017A09132
S1133870D117B091D2178A839B83AC83BD838A8589
S11338809B85FC0181819281A381B4812A813B8142
S11338904C815D8179018A01E81AF90A0A0B1B0B34
S11338A0D801C7018E839F83A887B9878C859D859E
S11338B0FC0180819181A281B3818F3F9F4FAF4FE3
S11338C0BF4F11F4198253C08A859B85FC019081F6
S11338D08091D717981799F08A859B85FC012181DF
S11338E03281438154818A819B81AC81BD8182175D
S11338F09307A407B50718F081E0898338C08C8545
S11339009D85FC0120813181428153818E819F817B
S1133910A885B98582179307A407B507F8F48C85A1
S11339209D85FC0120813181428153818E819F815B
S1133930A885B98579018A01E81AF90A0A0B1B0BD3
S1133940D801C7012C853D85F90180839183A28329
S1133950B3838A859B854FDF198209C08C859D8539
S1133960FC01108211821282138281E089830F90FC
S11339700FBE89812D960FB6F894DEBF0FBECDBF62
S1133980DF91CF911F910F91FF90EF900895CF9306
S1133990DF93CDB7DEB781E08093D6170000DF91C7
S11339A0CF910895CF93DF931F92CDB7DEB71982DD
S11339B010C08981282F30E04BE0429FC001439F13
S11339C0900D11248A59984E0E944E0689818F5F6A
S11339D089838981843068F382E997E10E944E06E5
S11339E08DE997E10E944E068CEA97E10E944E060B
S11339F087EB97E10E944E0683EC97E10E944E0606
S1133A0082E997E19093A9178093A8178DE997E12C
S1133A109093AB178093AA1700000F90DF91CF917A
S1133A200895CF93DF931F921F92CDB7DEB720C0C6
S1133A300FB6F8940F928091BE179091BF17FC01B6
S1133A40808591859A83898389819A8102960E94CF
S1133A5070078091CE1781508093CE178091C21742
S1133A6081508093C2170F900FBE89819A810AD02A
S1133A708091C2178823E1F600000F900F90DF9128
S1133A80CF910895CF93DF931F921F92CDB7DEB7E6
S1133A909A83898389819A81FC01838D948D0E9404
S1133AA0B40489819A810E94B40400000F900F909D
S1133AB0DF91CF910895CF93DF931F921F92CDB7DB
S1133AC0DEB78091A8179091A917FC018081882303
S1133AD061F48FEF9FEFDC018093D9179093DA178D
S1133AE0A093DB17B093DC171BC08091A8179091AB
S1133AF0A917FC0187819085FC01808591859A83B3
S1133B00898389819A81FC0182819381A481B58111
S1133B108093D9179093DA17A093DB17B093DC172F
S1133B2000000F900F90DF91CF910895CF93DF9312
S1133B301F921F92CDB7DEB78091641790916517DD
S1133B409A83898389819A810F900F90DF91CF9115
S1133B500895CF93DF931F92CDB7DEB78091D4172A
S1133B60882319F481E0898308C08091DF178823B2
S1133B7019F482E0898301C0198289810F90DF9151
S1133B80CF910895EF92FF920F931F93CF93DF93FA
S1133B9000D01F921F92CDB7DEB79D838C838C819A
S1133BA09D819B838A8319828C819D81892B09F451
S1133BB06AC08A819B81FC0180A52FEF280F8A812E
S1133BC09B81FC0120A78A819B81FC01228D8A8133
S1133BD09B81FC0187A1281709F455C08A819B8128
S1133BE0FC0180A5882309F04EC08A819B8102963E
S1133BF00E9470078A819B81FC0127A18A819B8195
S1133C00FC01228F8A819B81FC01828D882F90E0A8
S1133C10A0E0B0E024E030E040E050E079018A0127
S1133C20E81AF90A0A0B1B0BD801C7012A813B8148
S1133C30F90186879787A08BB18B8A819B81FC01D0
S1133C40928D8091D317891730F48A819B81FC016E
S1133C50828D8093D3178A819B81AC014E5F5F4F25
S1133C608A819B81FC01828D282F30E06BE0629F6A
S1133C70C001639F900D11248A59984EBA010E9485
S1133C809B0681E0898389810F900F900F900F909C
S1133C900F90DF91CF911F910F91FF90EF900895B6
S1133CA0CF92DF92EF92FF920F931F93CF93DF9304
S1133CB0CDB7DEB72F970FB6F894DEBF0FBECDBFDA
S1133CC06A837B838C839D832E833F8348875987B4
S1133CD01B870A87CC86DD86EE86FF860FB6F894AE
S1133CE00F928091641790916517FC0187A582302B
S1133CF099F16091641770916517FB0123A534A5B0
S1133D0045A556A58A819B81AC81BD8180959095FE
S1133D10A095B09582239323A423B523FB0183A705
S1133D2094A7A5A7B6A7809164179091651721E081
S1133D30FC0127A78C859D85AE85BF85892B8A2BA1
S1133D408B2B51F08C859D85AE85BF8541E0BC01F0
S1133D50CD0161D20E94C3090F900FBE0FB6F89433
S1133D600F928A859B85892B81F0809164179091AD
S1133D706517FC0183A594A5A5A5B6A52A853B8551
S1133D80F90180839183A283B38380916417909116
S1133D906517FC0187A5823011F019821CC060915F
S1133DA0641770916517FB0123A534A545A556A595
S1133DB08E819F81A885B98580959095A095B095B1
S1133DC082239323A423B523FB0183A794A7A5A748
S1133DD0B6A781E089838091641790916517FC01EF
S1133DE017A60F900FBE89812F960FB6F894DEBFE9
S1133DF00FBECDBFDF91CF911F910F91FF90EF9038
S1133E00DF90CF9008950F931F93CF93DF93CDB797
S1133E10DEB72D970FB6F894DEBF0FBECDBF9E83DD
S1133E208D834F83588769877A872B871D870C87F3
S1133E3081E089838D819E819B838A830FB6F89468
S1133E400F928C859D85892B71F08A819B81FC0161
S1133E5083A594A5A5A5B6A52C853D85F9018083E8
S1133E609183A283B3838A819B81FC0187A58C8380
S1133E708A819B8122E0FC0127A78B85882F90E013
S1133E808230910531F18330910534F4009709F4BF
S1133E904FC0019739F04DC08330910561F104970B
S1133EA0B1F147C08A819B81FC0123A534A545A5B6
S1133EB056A58F819885A985BA85822B932BA42B2F
S1133EC0B52B2A813B81F90183A794A7A5A7B6A79F
S1133ED030C08A819B81FC0183A594A5A5A5B6A5C4
S1133EE00196A11DB11D2A813B81F90183A794A7E5
S1133EF0A5A7B6A71EC02A813B818F819885A98575
S1133F00BA85F90183A794A7A5A7B6A712C08C8187
S1133F10823061F02A813B818F819885A985BA8599
S1133F20F90183A794A7A5A7B6A703C0198201C066
S1133F3000008C818130B9F58A819B8102960E94B0
S1133F4070078A819B81FC01928D8091D317891718
S1133F5030F48A819B81FC01828D8093D3178A81FE
S1133F609B81AC014E5F5F4F8A819B81FC01828DF6
S1133F70282F30E06BE0629FC001639F900D1124F5
S1133F808A59984EBA010E949B068A819B81FC0142
S1133F90228D8091641790916517FC01828D8217A0
S1133FA010F40E94C3090F900FBE89812D960FB69D
S1133FB0F894DEBF0FBECDBFDF91CF911F910F915B
S1133FC00895EF92FF920F931F93CF93DF93CDB792
S1133FD0DEB760970FB6F894DEBF0FBECDBF9F83E8
S1133FE08E83488759876A877B872C871E870D872E
S1133FF0F88AEF8681E089838E819F819B838A83FF
S11340001C828D859E85892B71F08A819B81FC01A0
S113401083A594A5A5A5B6A52D853E85F901808324
S11340209183A283B3838A819B81FC0187A58D83BD
S11340308A819B8122E0FC0127A78C85882F90E050
S11340408230910531F18330910534F4009709F4FD
S11340504FC0019739F04DC08330910561F1049749
S1134060B1F147C08A819B81FC0123A534A545A5F4
S113407056A588859985AA85BB85822B932BA42B6D
S1134080B52B2A813B81F90183A794A7A5A7B6A7DD
S113409030C08A819B81FC0183A594A5A5A5B6A502
S11340A00196A11DB11D2A813B81F90183A794A723
S11340B0A5A7B6A71EC02A813B8188859985AA85B4
S11340C0BB85F90183A794A7A5A7B6A712C08D81C4
S11340D0823061F02A813B8188859985AA85BB85D8
S11340E0F90183A794A7A5A7B6A703C0198201C0A5
S11340F000008D81813009F04EC08091DF17882344
S113410051F58A819B8102960E9470078A819B8166
S1134110FC01928D8091D317891730F48A819B8199
S1134120FC01828D8093D3178A819B81AC014E5F01
S11341305F4F8A819B81FC01828D282F30E06BE0E8
S1134140629FC001639F900D11248A59984EBA0151
S11341500E949B0608C08A819B810E96BC018CEA52
S113416097E10E949B068A819B81FC01228D8091AC
S1134170641790916517FC01828D821760F48F8516
S11341809889892B29F08F85988921E0FC01208367
S113419081E08093D617898160960FB6F894DEBFCC
S11341A00FBECDBFDF91CF911F910F91FF90EF9084
S11341B00895CF93DF9300D01F921F92CDB7DEB73F
S11341C09D838C838C819D81892B29F48091641734
S11341D09091651702C08C819D819B838A830FB661
S11341E0F8940F928A819B81FC0187A5823039F46F
S11341F08A819B81FC0117A681E0898301C0198211
S11342000F900FBE89810F900F900F900F900F9019
S1134210DF91CF910895CF93DF93CDB7DEB72D977C
S11342200FB6F894DEBF0FBECDBF69877A878B8740
S11342309C874D878091CF179091D017A091D1176B
S1134240B091D21789839A83AB83BC83809164171E
S11342509091651702960E94700789859A85AB85AF
S1134260BC858F3F9F4FAF4FBF4F71F48D8588231F
S113427059F080916417909165170296BC0183EC04
S113428097E10E949B0664C029813A814B815C813D
S113429089859A85AB85BC85820F931FA41FB51FA2
S11342A08D839E83AF83B8872091641730916517FF
S11342B08D819E81AF81B885F90182839383A48324
S11342C0B5832D813E814F81588589819A81AB8147
S11342D0BC81281739074A075B0778F48091641773
S11342E0909165179C012E5F3F4F8091AA17909182
S11342F0AB17B9010E94E9062BC080916417909115
S113430065179C012E5F3F4F8091A8179091A917C4
S1134310B9010E94E9068091D9179091DA17A0910A
S1134320DB17B091DC172D813E814F81588528170A
S113433039074A075B0760F48D819E81AF81B88598
S11343408093D9179093DA17A093DB17B093DC17F7
S113435000002D960FB6F894DEBF0FBECDBFDF91DF
S1134360CF910895EF92FF920F93CF93DF931F9213
S1134370CDB7DEB71982AED48091FA179091FB17AE
S1134380892B91F00F2EFCEFEF2EF7E1FF2EF02D8D
S113439003E020E030E045E550E065EC73E080EEBA
S11343A090E00E947E15898389810F90DF91CF91DF
S11343B00F91FF90EF900895CF92DF92EF92FF92CA
S11343C00F931F93CF93DF93CDB7DEB765970FB6E7
S11343D0F894DEBF0FBECDBF9A8789876B872C8781
S11343E03D874E875F87198B088BCA8ADB8AEC8AE4
S11343F0FD8A19828091FA179091FB17892B09F491
S113440043C08B858A838C859D85AE85BF858B83D0
S11344109C83AD83BE8389859A8598878F838B859A
S113442086302CF596DB823099F4E091FA17F091FE
S1134430FB178A899B89AC89BD89BE016E5F7F4F5A
S113444000E09C01AD01CF010E941C0C89831CC0BB
S11344508091FA179091FB17BE016E5F7F4F00E0C9
S113446020E030E0A9010E941C0C89830DC08091DA
S1134470FA179091FB1748895989BE016E5F7F4FE7
S113448020E00E94D20C8983898165960FB6F89446
S1134490DEBF0FBECDBFDF91CF911F910F91FF9073
S11344A0EF90DF90CF900895CF92DF92EF92FF923A
S11344B00F931F93CF93DF93CDB7DEB72B970FB630
S11344C0F894DEBF0FBECDBF6C837D838E839F8344
S11344D0288739874A875B878091F6179091F71769
S11344E0FC0187819085FC01808591859A8389836D
S11344F089819A8102960E94700789819A81FC01C0
S11345008789882F90E084709927892BA9F1898164
S11345109A81FC0126853785408951898C819D814A
S1134520AE81BF81820F931FA41FB51FEC80FD8055
S11345300E811F81288539854A855B85E981FA8149
S11345406701780189019A01AC01BD01CF013ED117
S11345508823E1F08C819D81AE81BF81E981FA815C
S1134560C12CD12C760100E010E09C01AD0160E08B
S1134570CF0122DF8B830AC089819A81FC0187895C
S1134580282F2E7F89819A81FC01278B89819A812A
S1134590FC012489358989819A81F90119950000E2
S11345A02B960FB6F894DEBF0FBECDBFDF91CF912F
S11345B01F910F91FF90EF90DF90CF900895EF92AD
S11345C0FF920F931F93CF93DF93CDB7DEB72A9754
S11345D00FB6F894DEBF0FBECDBF6E837F8388878E
S11345E099874A870E949018CE010596A8D0DC01CD
S11345F0CB0189839A83AB83BC838D81882309F0A3
S11346004DC08A858823D9F42E813F8148855985F8
S113461089819A81AB81BC8182179307A407B5076E
S113462070F00E949D1829813A814B815C818E81B2
S11346309F81A885B985BC01CD0136DF31C08A854B
S1134640882359F08091F8179091F917FC01908113
S113465081E0992309F080E08A872E813F81488593
S1134660598589819A81AB81BC8179018A01E81AD3
S1134670F90A0A0B1B0BD801C701E091FA17F09154
S1134680FB172A85AC01BD01CF010E94A10F0E9436
S11346909D18882329F40E94C30902C00E949D1812
S11346A000002A960FB6F894DEBF0FBECDBFDF918F
S11346B0CF911F910F91FF90EF900895CF93DF93C7
S11346C000D000D0CDB7DEB79E838D838091F617DE
S11346D09091F717FC01908181E0992309F080E023
S11346E0282F8D819E81FC0120838D819E81FC0178
S11346F08081882389F48091F6179091F717FC0143
S113470087819085FC0180819181A281B381898315
S11347109A83AB83BC8304C019821A821B821C82D5
S113472089819A81AB81BC81BC01CD0126960FB6EB
S1134730F894DEBF0FBECDBFDF91CF910895CF9324
S1134740DF9300D000D0CDB7DEB79E838D830E9467
S11347502F19DC01CB0189839A83AB83BC838091BD
S1134760FE179091FF17A0910018B09101182981AC
S11347703A814B815C81281739074A075B0738F473
S1134780E6D18D819E8121E0FC01208304C08D81CE
S11347909E81FC01108289819A81AB81BC818093C6
S11347A0FE179093FF17A0930018B0930118898106
S11347B09A81AB81BC81BC01CD0126960FB6F894D9
S11347C0DEBF0FBECDBFDF91CF910895CF92DF92B0
S11347D0EF92FF920F931F93CF93DF93CDB7DEB782
S11347E02F970FB6F894DEBF0FBECDBF9B838A838D
S11347F04C835D836E837F83088719872A873B8771
S1134800CC86DD86EE86FF8619822A813B818C81E7
S11348109D81AE81BF81F90182839383A483B58393
S11348208A819B812A813B81FC01338722872C81E9
S11348303D814E815F8188859985AA85BB858217D4
S11348409307A407B50740F1288539854A855B8518
S11348508C859D85AE85BF85281B390B4A0B5B0B68
S11348608A819B81FC0186859785A089B189281757
S113487039074A075B0718F081E0898336C08A81CB
S11348809B819C012E5F3F4F8091F8179091F917FF
S1134890B9010E94E90629C0288539854A855B85C6
S11348A08C859D85AE85BF85281739074A075B0728
S11348B080F42C813D814E815F818C859D85AE8500
S11348C0BF85281739074A075B0718F081E08983F9
S11348D00CC08A819B819C012E5F3F4F8091F6170B
S11348E09091F717B9010E94E90689812F960FB6B6
S11348F0F894DEBF0FBECDBFDF91CF911F910F9112
S1134900FF90EF90DF90CF900895CF92DF92EF92D7
S1134910FF920F931F93CF93DF93CDB7DEB72F97FB
S11349200FB6F894DEBF0FBECDBFF2C088858823D2
S11349300CF4EEC08D859E859A83898389819A8142
S1134940FC0184859585892B29F089819A810296B9
S11349500E947007CE010F96F2DEDC01CB018B833F
S11349609C83AD83BE838885082E000C990B092E89
S1134970000CAA0BBB0B40E050E029E030E0841BA4
S1134980950B2817390708F4C2C0FC018827EE5894
S1134990FF4F8F4F0C94783789819A81FC01878966
S11349A0282F216089819A81FC01278BE984FA846C
S11349B00B851C8529853A854B855C8589819A817F
S11349C0FC0186859785A089B189820F931FA41F56
S11349D0B51F2B813C814D815E81E981FA8167019C
S11349E0780189019A01AC01BD01CF01EFDE882372
S11349F009F48EC089819A81FC01248935898981D1
S1134A009A81F901199589819A81FC018789882FF6
S1134A1090E084709927892B09F47AC029853A8516
S1134A204B855C8589819A81FC0186859785A0895F
S1134A30B189820F931FA41FB51FE981FA81C12C8C
S1134A40D12C760100E010E09C01AD0160E0CF01C3
S1134A50B3DC8F835DC089819A81FC018789282F0B
S1134A602E7F89819A81FC01278B52C089819A818A
S1134A70FC018789282F216089819A81FC01278B79
S1134A8089859A85AB85BC8529813A81F901868718
S1134A909787A08BB18B89819A81FC012685378504
S1134AA0408951898B819C81AD81BE81820F931F86
S1134AB0A41FB51FEB80FC800D811E812B813C81DE
S1134AC04D815E81E981FA816701780189019A014A
S1134AD0AC01BD01CF017ADE1BC089819A81FC0142
S1134AE08789882F90E082709927892B29F48981FE
S1134AF09A810E94B4040CC089819A81FC0187893F
S1134B00282F2E7F89819A81FC01278B01C0000008
S1134B108091FA179091FB17BE01685F7F4F20E0E8
S1134B2030E0A9010E94300D882309F0FFCE000077
S1134B302F960FB6F894DEBF0FBECDBFDF91CF9195
S1134B401F910F91FF90EF90DF90CF900895CF9237
S1134B50DF92EF92FF920F931F93CF93DF93CDB722
S1134B60DEB72D970FB6F894DEBF0FBECDBF85C05C
S1134B708091F6179091F717FC0187819085FC01CD
S1134B8080819181A281B38189839A83AB83BC8321
S1134B908091F6179091F717FC0187819085FC01AD
S1134BA0808591859E838D838D819E8102960E944E
S1134BB070078D819E81FC01248935898D819E81B8
S1134BC0F90119958D819E81FC018789882F90E0D8
S1134BD084709927892B09F450C08D819E81FC0132
S1134BE0268537854089518989819A81AB81BC8129
S1134BF0820F931FA41FB51F8F839887A987BA8735
S1134C002F81388549855A8589819A81AB81BC81F8
S1134C1082179307A407B507F8F42D813E818F818D
S1134C209885A985BA85F90182839383A483B58382
S1134C308D819E812D813E81FC01338722878D8168
S1134C409E819C012E5F3F4F8091F6179091F7173C
S1134C50B9010E94E90611C089819A81AB81BC81A6
S1134C60ED81FE81C12CD12C760100E010E09C0185
S1134C70AD0160E0CF01A0DB8B878091F6179091A6
S1134C80F717FC018081882309F072CF8091F61711
S1134C909091F7179D878C878091F8179091F91759
S1134CA09093F7178093F6178C859D859093F91749
S1134CB08093F81700002D960FB6F894DEBF0FBE50
S1134CC0CDBFDF91CF911F910F91FF90EF90DF90B7
S1134CD0CF900895CF93DF93CDB7DEB70FB6F89496
S1134CE00F928091FA179091FB17892BE9F480EECB
S1134CF097E10E944E068BEE97E10E944E0680EEED
S1134D0097E19093F7178093F6178BEE97E19093C2
S1134D10F9178093F81740E067E08AE00E94410B9E
S1134D209093FB178093FA170F900FBE0000DF914A
S1134D30CF910895CF93DF93CDB7DEB70000DF9115
S1134D40CF910895CF93DF93CDB7DEB72E970FB6EB
S1134D50F894DEBF0FBECDBF84E290E024E230E0E1
S1134D60F90120812068FC01208385E290E025E29E
S1134D7030E0F90120812068FC01208380E090E08C
S1134D80A8E4B2E489839A83AB83BC8320E030E057
S1134D904AE755E469817A818B819C8169D2DC017F
S1134DA0CB018D839E83AF83B88720E030E040E859
S1134DB05FE36D817E818F81988597D188232CF460
S1134DC081E090E09A8789873BC020E03FEF4FE77E
S1134DD057E46D817E818F81988546D218163CF503
S1134DE020E030E040E251E469817A818B819C814A
S1134DF03FD2DC01CB01BC01CD0180D1DC01CB0170
S1134E009A8789870FC080E991E09C878B878B857F
S1134E109C850197F1F79C878B8789859A850197F3
S1134E209A87898789859A85892B69F713C06D814B
S1134E307E818F81988562D1DC01CB019A87898735
S1134E4089859A859E878D878D859E850197F1F743
S1134E509E878D8783E290E023E230E0F901208190
S1134E602068FC0120838ACFCF93DF93CDB7DEB7D0
S1134E7062970FB6F894DEBF0FBECDBF988B8F87B5
S1134E807A8B698B84E290E024E230E0F90120819E
S1134E902068FC01208385E290E025E230E0F901FE
S1134EA020812068FC01208380E090E0AAEFB4E434
S1134EB089839A83AB83BC8320E030E04AE755E4DE
S1134EC069817A818B819C81D3D1DC01CB018D8373
S1134ED09E83AF83B88720E030E040E85FE36D81D4
S1134EE07E818F81988501D188232CF481E090E024
S1134EF09A8789873BC020E03FEF4FE757E46D81F5
S1134F007E818F819885B0D118163CF520E030E081
S1134F1040E251E469817A818B819C81A9D1DC01D1
S1134F20CB01BC01CD01EAD0DC01CB019A87898792
S1134F300FC080E991E09C878B878B859C850197C6
S1134F40F1F79C878B8789859A8501979A8789874A
S1134F5089859A85892B69F713C06D817E818F813C
S1134F609885CCD0DC01CB019A87898789859A857D
S1134F709E878D878D859E850197F1F79E878D8706
S1134F8083E290E023E230E0F90120812068FC0113
S1134F9020838ACFEF92FF920F93CF93DF93CDB705
S1134FA0DEB78091531990915419892BC9F481E08B
S1134FB00E94FE0B909354198093531980915319B6
S1134FC090915419892B61F080915319909154193F
S1134FD000E020E030E0A90160E070E00E941C0CD9
S1134FE0E12CF12C01E020E030E040EC50E06DECED
S1134FF073E084E098E20E947E150000DF91CF9177
S11350000F91FF90EF900895CF93DF93CDB7DEB764
S11350102A970FB6F894DEBF0FBECDBF9A87898753
S113502088E391E0A0E0B0E089839A83AB83BC83FA
S11350300E942F19DC01CB018D839E83AF83B88737
S113504089819A81AB81BC819E012B5F3F4FAC016A
S1135050BD01C9010E945A178DED93E00E943139B8
S11350600E940503EDCFCF93DF93CDB7DEB781E286
S113507090E021E230E0F90120812168FC012083E5
S11350800E94700380E00E94E23284DFDAD1882338
S113509099F0D7D1882F90E0292F2F938F938DEFFC
S11350A093E0892F8F938DEF93E08F930E941E39A5
S11350B00F900F900F900F9085E065D160E070E045
S11350C081E03ED383E00E9425010000DF91CF916F
S11350D00895CF93DF93CDB7DEB7C5DF87E394E0C0
S11350E00E9431390E944418FFCF71D008F481E046
S11350F0089504D06894B111B1C0089594D088F093
S11351009F5790F0B92F9927B751A0F0D1F0660FAF
S1135110771F881F991F1AF0BA95C9F712C0B130CA
S113512081F09BD0B1E0089598C0672F782F88272D
S1135130B85F39F0B93FCCF3869577956795B39509
S1135140D9F73EF490958095709561957F4F8F4F78
S11351509F4F0895E89409C097FB3EF4909580957D
S1135160709561957F4F8F4F9F4F9923A9F0F92F29
S113517096E9BB279395F695879577956795B795A7
S1135180F111F8CFFAF4BB0F11F460FF1BC06F5F8D
S11351907F4F8F4F9F4F16C0882311F096E911C09F
S11351A0772321F09EE8872F762F05C0662371F0C0
S11351B096E8862F70E060E02AF09A95660F771FD4
S11351C0881FDAF7880F9695879597F90895990FB0
S11351D00008550FAA0BE0E8FEEF16161706E807BD
S11351E0F907C0F012161306E407F50798F0621BDE
S11351F0730B840B950B39F40A2661F0232B242BB3
S1135200252B21F408950A2609F4A140A6958FEFD1
S1135210811D811D089557FD9058440F551F59F065
S11352205F3F71F04795880F97FB991F61F09F3F8F
S113523079F087950895121613061406551FF2CFB8
S11352404695F1DF08C0161617061806991FF1CF08
S113525086957105610508940895E894BB2766272F
S11352607727CB0197F90895B2DF08F48FEF0895FB
S11352700BD078C069D028F06ED018F0952309F0CF
S11352805AC05FC01124EACFC6DFA0F3959FD1F3C3
S1135290950F50E0551F629FF001729FBB27F00DE0
S11352A0B11D639FAA27F00DB11DAA1F649F662735
S11352B0B00DA11D661F829F2227B00DA11D621F84
S11352C0739FB00DA11D621F839FA00D611D221F3E
S11352D0749F3327A00D611D231F849F600D211D22
S11352E0822F762F6A2F11249F5750408AF0E1F0C5
S11352F088234AF0EE0FFF1FBB1F661F771F881F0E
S113530091505040A9F79E3F510570F014C0A6CFAC
S11353105F3FECF3983EDCF3869577956795B795F8
S1135320F795E7959F5FC1F7FE2B880F911D969522
S1135330879597F9089597F99F6780E870E060E092
S113534008959FEF80EC089500240A94161617061A
S113535018060906089500240A9412161306140662
S113536005060895092E0394000C11F4882352F0C5
S1135370BB0F40F4BF2B11F460FF04C06F5F7F4F7D
S11353808F4F9F4F0895E5E5F9E125EF3EE2318324
S1135390208328EF3EE23383228323E03FE23583F8
S11353A0248327E03FE2378326832DE03FE23187E1
S11353B0208729E13FE2338722872EE13FE23587C8
S11353C024872AE23FE2378726872AE03FE2318BAF
S11353D0208B2FE23FE2338B228B2CE33FE2358B91
S11353E0248B0C94E93308956530F1F4FA0180813B
S11353F08F7390E0982F88272181822B9093090244
S1135400809308028281F0E48F9FC0011124FA0185
S1135410238126952695822B90930702809306027A
S113542081E0809302180895643051F080E090E4A4
S113543090930702809306029093090280930802D6
S113544008950F931F9304EF19E220E034E244EF30
S113545050E060E087E20E94D03490930418809377
S1135460031821E0892B09F020E0822F1F910F916E
S113547008958091031890910418009759F040E022
S113548060E070E00E942135843031F410920218FB
S113549080E0089582E0089583E0089580910318E0
S11354A090910418009739F064E00E946D358530BE
S11354B021F083E0089582E0089580E008956091EA
S11354C006027091070280E090E044DE20E030E0C4
S11354D045E253E4CDDE20E038EF4FE756E40E9486
S11354E0E53620E030E040E252E40C947936089549
S11354F0E6DF20E030E040E251E4BADEFADDCB0141
S113550008950F931F93CF93DF931F921F92CDB7EC
S1135510DEB78C0119822DC0E0916918EC3250F489
S113552081E08E0F80936918F0E0E556F74E8A818A
S1135530808302C0109269188A818A30D1F4409124
S1135540691850E0FA01E756F74E108241505109AC
S11355509E012F5F3F4F6BE978E180916C18909129
S11355606D180E94B311898181110E94C3091092A0
S11355706918BE016E5F7F4FC80192D5882361F21E
S11355800F900F90DF91CF911F910F9108950F937A
S11355901F93CF93DF938C01EB0180916C18909152
S11355A06D180E943810B80185E098E10E94FF3818
S11355B0209779F0E5E0F8E101900020E9F73197D0
S11355C080E290E091838083BE0185E098E10E94AF
S11355D0F438E5E0F8E1DF010D900020E9F71197D8
S11355E08DE09AE011969C938E9312961C920190F2
S11355F00020E9F73197E550F841AE2F85E098E1B6
S1135600AC016A2F80916E1890916F18F9D48111B2
S113561011C008E215E020E030E04DE250E065EF13
S113562078E180916C1890916D180E949B1285EF1F
S113563098E102C080E090E0DF91CF911F910F913B
S113564008952F923F924F925F926F927F928F9222
S11356509F92AF92BF92CF92DF92EF92FF920F93FD
S11356601F93CF93DF935C01FC0101900020E9F7C5
S113567031976F01C81AD90A5C2C0F2EF2E08F2ED5
S1135680F7E09F2EF02DE12CF12C4C2C3701F40186
S113569001811281E80109900020E9F72197C01BDC
S11356A0D10B3C2EF9E0CF16D10458F0F401208040
S11356B0FEE02F1206C0B801C5010E94CF38892B25
S11356C009F5442D351408F44C2F50E0B801C501F8
S11356D00E940639892B49F4F301EE0FFF1FE60DF2
S11356E0F71DEE5FF84F20800DC08FEFE81AF80A1F
S11356F0E3E08E0E911CF1E1EF16F10439F66894A3
S1135700222424F8822DDF91CF911F910F91FF90D5
S1135710EF90DF90CF90BF90AF909F908F907F904D
S11357206F905F904F903F902F90089530DF89CF16
S1135730089580916C1890916D180C943810089508
S11357408F929F92AF92CF92EF920F931F93CF932A
S1135750C82F8B0141E060E070E088EC90E00E948B
S1135760F00F90936D1880936C1810936B1800933E
S11357706A180F2EF1E88F2EFAE29F2EF02D68940E
S1135780AA24A6F86894CC24C6F8E12C00E023E00F
S113579040E051EE60E070E08C2F74D390936F186A
S11357A080936E18E0915D19F0915E1964E087E0D2
S11357B091E01995CF911F910F91EF90CF90AF90F9
S11357C09F908F900895882349F0E0916719F09194
S11357D0681964E088E091E019950895E0915D19F5
S11357E0F0915E1964E088E091E01995089560E015
S11357F070E088E894E0CBDEE5EFF8E1019000206A
S1135800E9F73197E55FF84181E0759708F080E0AA
S11358100895CF93DF93EC0160E070E089E994E0B0
S1135820B6DEE5EFF8E101900020E9F7E650F94132
S113583039F465EF78E1CE010E94FF3880E002C0C0
S1135840188281E0DF91CF910895FC01019000203E
S1135850E9F79F01215131092817390729F4BC01BF
S113586087EC94E063CF089589E00895FC010190EA
S11358700020E9F79F01215131092817390729F43C
S1135880BC0186ED94E052CF089589E00895FC01AF
S113589001900020E9F79F012152310928173907A7
S11358A029F4BC0185EE94E041CF089589E0089580
S11358B060E070E084E295E039CF08950F931F9380
S11358C0E82FF0E0EE0FFF1FE250F94F6081718185
S11358D08DE295E02BDF811114C008E215E020E091
S11358E030E04DE250E065EF78E180916C189091E2
S11358F06D180E949B12882321F085EF98E1A1DEA8
S113590003C085EF98E19DDE1F910F9108950F93D9
S11359101F93CF93DF931F92CDB7DEB7DB011196B0
S11359209C911197953108F0B4C0992381F160E0FE
S113593070E0272F30E0462F50E0FD01E40FF51F03
S1135940928192959F709A3010F0995C01C0905D9D
S1135950F901EA57F74E90832F5F3F4FFD01E40FA3
S1135960F51F92819F70492F50E04A30510514F081
S1135970995C01C0905DF901EA57F74E90837E5F10
S11359806F5F11969C911197691798F201C070E0AE
S1135990E72FF0E0EA57F74E10824C91811103C0D3
S11359A086E395E002C088E395E026E838E13F937A
S11359B02F931F924F939F938F938CE395E09F9324
S11359C08F9388EC98E19F938F930E94613960E0F4
S11359D070E088EC98E1AADE0FB6F894DEBF0FBE43
S11359E0CDBF811159C008E215E020E030E04DE25E
S11359F050E065EF78E180916C1890916D180E94E9
S1135A009B12882309F447C085EF98E11ADE8E3093
S1135A1009F042C087E0898380916A1890916B18DD
S1135A20892BA9F1BE016F5F7F4F85EF98E168D1A3
S1135A3080937018E981F0E0EB50F74EDF010D9090
S1135A400020E9F71197AE1BBF0BAA2391F0BB27E7
S1135A50CD0101979C0112F42F5F3F4F3595279597
S1135A6020937118AF014F5F5F4F64E182E798E1C3
S1135A7073D101E010E020E030E046E150E060E75F
S1135A8078E180916A1890916B180E94DF108EE083
S1135A9003C084E101C080E00F90DF91CF911F919A
S1135AA00F910895813019F06CE475E002C065E24D
S1135AB076E080E595E03ACE08959F938F9381E850
S1135AC095E09F938F9388EC98E19F938F930E9426
S1135AD0613960E070E088EC98E128DE0F900F9067
S1135AE00F900F900F900F9008952F923F924F9226
S1135AF05F926F927F928F929F92AF92BF92CF925A
S1135B00DF92EF92FF920F931F93CF93DF93CDB762
S1135B10DEB7A0970FB6F894DEBF0FBECDBF6EEA16
S1135B2075E08AEB95E033DD8CDD8111A3C080E262
S1135B30E9E4F4E0DE01119601900D928A95E1F713
S1135B409E012F5F3F4F6901E12CF12C0F2EF6ECE3
S1135B50AF2EF5E0BF2EF02D08EC18E10F2EFFED6F
S1135B604F2EF5E05F2EF02D0F2EF6EF8F2EF5E081
S1135B709F2EF02D0F2EF0E16F2EF6E07F2EF02DEC
S1135B803E2C2F2CFF92EF92BF92AF921F930F9354
S1135B900E94613960E070E0C801F9DC52DD0F90C9
S1135BA00F900F900F900F900F90811163C032E00F
S1135BB03E15E8F4F60183818F9382818F9381816E
S1135BC08F9380818F93FF92EF925F924F921F93F6
S1135BD00F930E94613960E070E0C801D8DC31DDC8
S1135BE00FB6F894DEBF0FBECDBF811143C02F9214
S1135BF03F929F928F921F930F930E94613960E0AE
S1135C0070E0C801C4DC1DDD0F900F900F900F9061
S1135C100F900F9081112EC02F923F927F926F921E
S1135C201F930F930E94613960E070E0C801AFDCFC
S1135C3008DD0F900F900F900F900F900F9081112F
S1135C4019C03FEFE31AF30A84E0C80ED11C98E0B0
S1135C50E916F10409F094CF60E070E088E296E080
S1135C6096DCEFDC811106C060E070E089E396E029
S1135C708EDCE7DCA0960FB6F894DEBF0FBECDBF76
S1135C80DF91CF911F910F91FF90EF90DF90CF9014
S1135C90BF90AF909F908F907F906F905F904F9048
S1135CA03F902F900895EF92FF920F931F93CF93FD
S1135CB0DF93EC018B017A0181E0F4DE81110DC0E8
S1135CC0CE01D4DD811109C0C801E1DD811105C017
S1135CD0C701BBDD811101C0EBDDDF91CF911F91C5
